:020000040800F2
:10000000000001201D1D00089D1C00089F1C000809
:10001000A11C0008A31C0008A51C0008000000008B
:10002000000000000000000000000000A71C000805
:10003000A91C000800000000AB1C0008AD1C000853
:100040006D1D00086D1D00086D1D00086D1D000868
:100050006D1D00086D1D00086D1D00086D1D000858
:100060006D1D00086D1D00086D1D00086D1D000848
:100070006D1D00086D1D00086D1D00086D1D000838
:100080006D1D00086D1D00086D1D00086D1D000828
:100090006D1D00086D1D00086D1D00086D1D000818
:1000A0006D1D00086D1D00086D1D00086D1D000808
:1000B0006D1D00086D1D00086D1D00086D1D0008F8
:1000C0006D1D00086D1D00086D1D00086D1D0008E8
:1000D0006D1D00086D1D00086D1D00086D1D0008D8
:1000E0006D1D00086D1D00086D1D00086D1D0008C8
:1000F0006D1D00086D1D00086D1D00086D1D0008B8
:100100006D1D000800000000000000006D1D0008CB
:100110006D1D00086D1D00086D1D00086D1D000897
:100120006D1D00086D1D00086D1D00086D1D000887
:100130006D1D00086D1D000800000000000000009B
:100140006D1D00086D1D00086D1D000800000000F9
:10015000000000000000000000000000000000009F
:100160006D1D00086D1D00086D1D00086D1D000847
:100170006D1D00086D1D00086D1D00086D1D000837
:100180006D1D00086D1D000800000000000000004B
:040190006D1D0008D9
:1001940010B5054C237833B9044B13B10448AFF3BD
:1001A40000800123237010BDE00100200000000046
:1001B400C81D000808B5034B1BB103490348AFF33E
:1001C400008008BD00000000E4010020C81D0008F4
:1001D40010B504460E4B18784FF47A73B3FBF0F362
:1001E4000C4A1068B0FBF3F000F080F868B90F2CEB
:1001F40001D901200AE0002221464FF0FF3000F02F
:1002040041F8034B5C60002000E0012010BD00BFFA
:1002140000000020DC01002008B5074A136843F001
:1002240010031360032000F01BF80020FFF7D0FF39
:1002340001F0AEFC002008BD00200240034A116812
:10024400034B1B780B441360704700BF000200206F
:1002540000000020014B1868704700BF0002002016
:10026400074AD36823F4E0631B041B0C000200F468
:10027400E060184340F0BF6040F40030D060704745
:1002840000ED00E030B4174BDB68C3F30223C3F185
:100294000704042C28BF04241D1D062D18D9033B74
:1002A4004FF0FF3505FA04F421EA0401994005FAF8
:1002B40003F322EA0303194300280BDB0901C9B243
:1002C40000F1604000F5614080F8001330BC7047D5
:1002D4000023E5E700F00F000901C9B2024B1954ED
:1002E400F4E700BF00ED00E014ED00E00138B0F1E8
:1002F400807F0AD2064B5860064AF02182F8231008
:100304000020986007221A6070470120704700BFE0
:1003140010E000E000ED00E0F0B482B0002336E02D
:10032400062400E00024B4403C430235614E46F804
:100334002540614C2568D44304EA05064F6817F448
:10034400803F01D042EA05065B4D2E606D6804EAE9
:1003540005064F6817F4003F01D042EA0506564DE2
:100364006E60AD6804EA05064F6817F4801F01D07B
:1003740042EA0506504DAE60ED682C404E6816F416
:10038400001F01D042EA05044B4AD46001330A68D5
:1003940032FA03F400F08B8001249C402240F5D013
:1003A4004D68022D01D0122D10D1DE08083650F808
:1003B40026C003F00705AF000F25BD402CEA050C4D
:1003C4000D69BD4045EA0C0540F8265006685F00FB
:1003D4000325BD40ED4305EA060C4E6806F003060E
:1003E400BE4046EA0C0606604E6806F1FF3CBCF1CE
:1003F400010F03D9112E01D0122E10D1866805EAFF
:10040400060CCE68BE4046EA0C068660466826EABC
:1004140004044E68C6F300169E4026434660C46832
:1004240025408C68BC402C43C4604C6814F0805F49
:10043400ACD0224CA56945F00105A561A46904F07E
:1004440001040194019C9D08AE1C1A4C54F82670BA
:1004540003F00304A6000F24B44027EA0407B0F114
:10046400904F3FF45FAF164CA04216D004F5806461
:10047400A04214D004F58064A04212D004F5806434
:10048400A04210D004F58064A0420ED004F580642C
:10049400A0423FF445AF072445E7012443E7022483
:1004A40041E703243FE704243DE705243BE702B08A
:1004B400F0BC7047000001400004014000100240FD
:1004C400000400480AB981627047816170470000E6
:1004D400002800F0F98270B582B00446036813F076
:1004E400010F3DD0B44B5B6803F00C03042B20D008
:1004F400B14B5B6803F00C03082B13D06368B3F5AE
:10050400803F6AD0002B40F08D8003F1804303F5D7
:1005140004331A6822F480321A601A6822F48022A2
:100524001A605FE0A44B5B6803F4C033B3F5803F0B
:10053400E4D14FF4003393FAA3F39F4B19684FF4BB
:10054400003393FAA3F3B3FA83F303F01F030122F6
:1005540002FA03F30B4203D06368002B00F0BC8261
:10056400236813F0020F00F0C180934B5B6813F013
:100574000C0F00F09780904B5B6803F00C03082B82
:1005840000F08880E368002B00F0EE80012292FAEC
:10059400A2F3B3FA83F303F1845303F584139B00AA
:1005A4001A60FFF757FE0546022393FAA3F3824B22
:1005B4001968022393FAA3F3B3FA83F303F01F0336
:1005C400012202FA03F30B4240F0BF80FFF742FE20
:1005D400401B0228E8D9032085E2774A136843F4D4
:1005E400803313606368002B36D0FFF733FE054673
:1005F4004FF4003393FAA3F36F4B19684FF40033AD
:1006040093FAA3F3B3FA83F303F01F03012202FA6C
:1006140003F30B42A4D1FFF71DFE401B6428E7D966
:10062400032060E2B3F5A02F09D0634B1A6822F4CB
:1006340080321A601A6822F480221A60D2E703F129
:100644008043A3F53C331A6842F480221A601A6886
:1006540042F480321A60C5E7FFF7FCFD05464FF40B
:10066400003393FAA3F3544B19684FF4003393FA0D
:10067400A3F3B3FA83F303F01F03012202FA03F393
:100684000B423FF46DAFFFF7E5FD401B6428E6D94C
:10069400032028E2484B5B6803F4C033B3F5004FF2
:1006A4007FF470AF022393FAA3F3434B1968022338
:1006B40093FAA3F3B3FA83F303F01F03012202FABC
:1006C40003F30B4204D0E368934201D001200AE211
:1006D4003948036823F0F8032169F82292FAA2F258
:1006E400B2FA82F201FA02F213430360236813F0B0
:1006F400080F00F08D806369002B61D0012191FA0D
:10070400A1F2B2FA82F22D4B13449B001960FFF759
:10071400A1FD0546022393FAA3F293FAA3F293FAF6
:10072400A3F2254A516A93FAA3F3B3FA83F303F0CD
:100734001F03012202FA03F30B4269D1FFF78AFD7A
:10074400401B0228E6D90320CDE11B48036823F0AF
:10075400F8032169F82292FAA2F2B2FA82F201FABB
:1007640002F213430360C1E7012393FAA3F3B3FA3C
:1007740083F303F1845303F584139B0000221A606E
:10078400FFF768FD0546022393FAA3F30A4B1968A1
:10079400022393FAA3F3B3FA83F303F01F030122B2
:1007A40002FA03F30B42A1D0FFF754FD401B0228C9
:1007B400E9D9032097E100BF001002402081901086
:1007C400012292FAA2F2B2FA82F2C04B13449B00C5
:1007D40000221A60FFF73EFD0546022393FAA3F2B6
:1007E40093FAA3F293FAA3F2B94A516A93FAA3F3E0
:1007F400B3FA83F303F01F03012202FA03F30B425B
:1008040006D0FFF727FD401B0228E6D903206AE142
:10081400236813F0040F00F0B380AD4BDB6913F0D1
:10082400805F20D1AA4BDA6942F08052DA61DB6939
:1008340003F080530193019B0125A64B1B6813F41D
:10084400807F12D0A368012B23D073BB03F18043B4
:1008540003F504331A6A22F001021A621A6A22F0BA
:1008640004021A621AE00025E7E79A4A136843F47F
:1008740080731360FFF7EEFC0646964B1B6813F477
:10088400807FDFD1FFF7E6FC801B6428F5D90320C5
:1008940029E18F4A136A43F001031362A368002B12
:1008A40041D0FFF7D7FC06462BE0052B09D0884B37
:1008B4001A6A22F001021A621A6A22F004021A6207
:1008C400ECE7834B1A6A42F004021A621A6A42F095
:1008D40001021A62E2E77E4B196A022393FAA3F338
:1008E400B3FA83F303F01F03012202FA03F319425C
:1008F40045D1FFF7AFFC801B41F28833984200F2E8
:10090400ED80022393FAA3F293FAA3F3B3FA83F3E9
:100914005B0943F00203022BDDD0022393FAA3F315
:100924006B4B596AD9E7FFF795FC064615E0684B0F
:10093400196A022393FAA3F3B3FA83F303F01F03B0
:10094400012202FA03F3194219D0FFF783FC801B3A
:1009540041F28833984200F2C380022393FAA3F24F
:1009640093FAA3F3B3FA83F35B0943F00203022B74
:10097400DDD0022393FAA3F3554B596AD9E7B5BBEB
:10098400A369002B00F0AE80514A526802F00C02B9
:10099400082A00F0AA80022B2FD04FF0807393FA1C
:1009A400A3F3B3FA83F303F1845303F584139B0095
:1009B40000221A60FFF74EFC04464FF0007393FACE
:1009C400A3F3434B19684FF0007393FAA3F3B3FAFC
:1009D40083F303F01F03012202FA03F3194271D0D7
:1009E400FFF738FC001B0228E7D903207BE0384AD4
:1009F400D36923F08053D361C2E74FF0807393FA35
:100A0400A3F3B3FA83F303F1845303F584139B0034
:100A140000221A60FFF71EFC05464FF0007393FA9C
:100A2400A3F32B4B19684FF0007393FAA3F3B3FAB3
:100A340083F303F01F03012202FA03F3194206D0E1
:100A4400FFF708FC401B0228E7D903204BE0204AAB
:100A5400D36A23F00F03616A0B43D362536823F410
:100A64007613216AE06901430B4353604FF08073AE
:100A740093FAA3F3B3FA83F303F1845303F58413D2
:100A84009B0001221A60FFF7E5FB04464FF0007358
:100A940093FAA3F30E4B19684FF0007393FAA3F380
:100AA400B3FA83F303F01F03012202FA03F319429A
:100AB40006D1FFF7CFFB001B0228E7D9032012E081
:100AC400002010E000200EE00120704720819010EB
:100AD4000010024000700040012004E0032002E006
:100AE400032000E0002002B070BD0120FBE700BF3E
:100AF40010B4184B5C6804F00C03082B28D104F4E0
:100B040070124FF4701393FAA3F3B3FA83F322FA37
:100B140003F31149C85C0F4BDB6A03F00F030F2288
:100B240092FAA2F2B2FA82F2D3400B441A7C14F481
:100B3400803F07D1094BB3FBF2F300FB03F05DF8F0
:100B4400044B7047054BB3FBF2F300FB03F0F6E7ED
:100B54000248F4E700100240E01D000800127A0089
:100B6400002800F0C08070B50446614B1B6803F098
:100B740007038B420CD25E4A136823F007030B432E
:100B84001360136803F007038B4201D0012070BD8A
:100B9400236813F0020F06D0564A536823F0F0037B
:100BA400A068034353600D46236813F0010F5AD025
:100BB4006368012B2DD0022B40D0022292FAA2F2BC
:100BC4004C4A1068022292FAA2F2B2FA82F202F0BD
:100BD4001F02012101FA02F2104200F08680454909
:100BE4004A6822F0030213434B60FFF733FB0646C7
:100BF400404B5B6803F00C036268B3EB820F32D0A6
:100C0400FFF728FB801B41F288339842F0D9032078
:100C1400BDE74FF4003292FAA2F2364A10684FF45C
:100C2400003292FAA2F2B2FA82F202F01F02012119
:100C340001FA02F20242D2D10120A8E74FF0007279
:100C440092FAA2F22B4A10684FF0007292FAA2F2C2
:100C5400B2FA82F202F01F02012101FA02F21042FA
:100C6400BDD1012093E7224B1B6803F00703AB427D
:100C74000CD91F4A136823F007032B43136013682E
:100C840003F00703AB4201D0012080E7236813F08F
:100C9400040F06D0174A536823F4E063E1680B435A
:100CA4005360236813F0080F07D0124A536823F4E3
:100CB4006053216943EAC1035360FFF719FF0D4BE9
:100CC4005B6803F0F003F02292FAA2F2B2FA82F225
:100CD400D340094AD35CD840084B18600020FFF782
:100CE40077FA002053E70120704701204FE700BF47
:100CF4000020024000100240001E0008DC01002019
:100D0400014B1868704700BFDC01002008B5FFF7ED
:100D1400F7FF074B5B6803F4E0634FF4E06292FA79
:100D2400A2F2B2FA82F2D340024AD35CD84008BDA0
:100D340000100240101E000808B5FFF7E1FF074B42
:100D44005B6803F460534FF4605292FAA2F2B2FA71
:100D540082F2D340024AD35CD84008BD001002405E
:100D6400101E0008F0B583B00446036813F4803FF6
:100D740048D0A14BDB6913F0805F40F022819E4B89
:100D8400DA6942F08052DA61DB6903F0805301933F
:100D9400019B0125994B1B6813F4807F00F013819C
:100DA400954B1B6A13F4407322D0626802F44072BC
:100DB4009A421DD09048016A21F440764FF4803362
:100DC40093FAA3F2B2FA82F28D4F3A4492004FF0B2
:100DD400010CC2F800C093FAA3F3B3FA83F33B44C3
:100DE4009B0000221A60066211F0010F40F000819E
:100DF400814A136A23F4407361680B431362002D24
:100E040040F02881236813F0010F06D07A4A136B4F
:100E140023F00303A1680B431363236813F0020F49
:100E240006D0754A136B23F44033E1680B43136314
:100E3400236813F0040F06D06F4A136B23F4402386
:100E440021690B431363236813F0200F06D06A4A09
:100E5400136B23F01003E1690B431363236813F44A
:100E6400003F06D0644A536823F48003616D0B434A
:100E74005360236813F0400F06D05F4A136B23F0CE
:100E84002003216A0B431363236813F4802F06D0D5
:100E9400594A136B23F04003616A0B4313632368BD
:100EA40013F0080F06D0544A136B23F440136169FE
:100EB4000B431363236813F0100F06D04E4A136BD1
:100EC40023F44003A1690B431363236813F4007FE5
:100ED40006D0494A536823F40003216B0B43536043
:100EE400236813F0800F06D0434AD36A23F4F873BF
:100EF400A16A0B43D362236813F4807F06D03E4A71
:100F0400D36A23F47853E16A0B43D362236813F45E
:100F1400805F06D0384A136B23F48073616B0B43F4
:100F24001363236813F4005F06D0334A136B23F46E
:100F34000073216C0B431363236813F4801F06D0E2
:100F44002D4A136B23F08073A16B0B431363236847
:100F540013F4001F06D0284A136B23F00073E16BCF
:100F64000B431363236813F4800F06D0224A136BD8
:100F740023F48063616C0B431363236813F4000F41
:100F840006D01D4A136B23F40063A16C0B43136357
:100F9400236813F0807F06D0174A136B23F40053A1
:100FA400E16C0B431363236813F0007F59D0124A9A
:100FB400136B23F40043216D0B431363002003B030
:100FC400F0BD0025E6E60D4A136843F48073136010
:100FD400FFF740F90646094B1B6813F4807F7FF442
:100FE400DFAEFFF737F9801B6428F4D90320E6E766
:100FF400FFF730F906461BE0001002400070004085
:1010040000819010184B196A022393FAA3F3B3FAE0
:1010140083F303F01F03012202FA03F30B427FF46C
:10102400E7AEFFF717F9801B41F28833984216D8D0
:10103400022393FAA3F293FAA3F3B3FA83F35B09BB
:1010440043F00203022BDDD0022393FAA3F3064BF1
:10105400596AD9E7D36923F08053D361D2E60320D8
:10106400ADE70020ABE700BF00100240F8B505462D
:101074000F4616461C4639E02CB1FFF7EBF8069BE9
:10108400C01AA04232D32A68536823F0E0035360A5
:101094006B68B3F5827F0BD0AB6AB3F5005F14D0F5
:1010A400012385F85D30002385F85C30032025E0BA
:1010B400AB68B3F5004F02D0B3F5806FECD12A686A
:1010C400136823F040031360E6E72A68136823F4E7
:1010D400005313602A68136843F400531360DFE776
:1010E4000123B34209D0B4F1FF3FC5D12B689B68FB
:1010F40037EA0303F4D00023F3E70020F8BDF0B58A
:1011040083B007460C4615461E4602E0B6F1FF3F83
:1011140010D13A6893682340AB423FD0B4F5C06F16
:10112400F4D1002DF2D1137BDBB28DF807309DF89A
:101134000730EBE72EB1FFF78DF8089BC01AB042D9
:10114400E7D33A68536823F0E00353607B68B3F550
:10115400827F0BD0BB6AB3F5005F14D0012387F8FC
:101164005D30002387F85C30032018E0BB68B3F5DA
:10117400004F02D0B3F5806FECD13A68136823F0C6
:1011840040031360E6E73A68136823F400531360DE
:101194003A68136843F400531360DFE7002003B098
:1011A400F0BD70B582B004460D46164600920B465B
:1011B40000224FF4C051FFF7A2FFB8B900962B46A6
:1011C400002280212046FFF751FFB8B900962B4634
:1011D40000224FF4C0612046FFF791FF034650B14F
:1011E400236E43F020032366032304E0236E43F0BD
:1011F400200323660323184602B070BD236E43F018
:10120400200323660323F6E7002858D010B50446CC
:101214000023836290F85D30002B45D0022384F8CC
:101224005D302268136823F040031360E368B3F56C
:10123400E06F3ED90022B3F5706F04D0B3F5E06FD0
:1012440001D00021A162216B21B9B3F5E06F33D93C
:10125400022323636368A1680B4321690B4361691B
:101264000B43A16901F400710B43E1690B43216A4B
:101274000B43A06A216803430B60638B03F00403F0
:10128400616A0B43616B0B43E1680B4321681343B1
:101294004B602268D36923F40063D3610020206685
:1012A400012384F85D3010BD80F85C3000F08EFCC2
:1012B400B4E74FF48052BEE701232363CAE7012059
:1012C40070472DE9F04182B01E4690F85C30012B46
:1012D40000F0D68004460D469046012380F85C3029
:1012E400FEF7B8FF074694F85D30DBB2012B09D056
:1012F4000220012384F85D30002384F85C3002B0BE
:10130400BDE8F081002D00F0B180B8F1000F00F0CD
:10131400AF80032384F85D3000232366A563A4F81B
:101324003C80A4F83E802364A4F84430A4F84630FA
:101334002365E364A368B3F5004F1BD023681A68E0
:1013440012F0400F03D11A6842F040021A60E368B9
:10135400B3F5E06F31D963681BB1E38F9BB2012B06
:1013640013D1236835F8022BDA60E38F013B9BB27B
:10137400E3870AE02268136843F480431360DDE7DF
:10138400002E77D0B6F1FF3F10D1E38F9BB2002B34
:1013940057D023689A6812F0020FF1D035F8022B67
:1013A400DA60E38F013B9BB2E387EEE7FEF752FF7F
:1013B400C01BB042E9D303209BE763681BB1E38FF2
:1013C4009BB2012B22D1E38F9BB2012B08D9236856
:1013D40035F8022BDA60E38F023B9BB2E38715E01A
:1013E40023682A781A73E38F013B9BB2E3870135A4
:1013F4000CE02A781A73E38F013B9BB2E387013533
:1014040004E0002E38D0B6F1FF3F13D1E38F9BB236
:10141400BBB123689A6812F0020FF2D0E28F92B245
:10142400012AE6D935F8022BDA60E38F023B9BB23E
:10143400E387EBE7FEF70EFFC01BB042E6D30320C1
:1014440057E73A4631462046FFF7ABFE08B1202362
:101454002366A36833B901932368DA6801929B6811
:101464000193019B236E4BB9002042E7012040E722
:1014740001203EE703203CE703203AE7012038E758
:1014840002203CE710B504468368026913434269AD
:101494001343C2691343016808689C4A024013431A
:1014A4000B602268536823F44053E1680B43536094
:1014B400A369226A1A4321688B6823F430631343B7
:1014C4008B602368924A93421FD0924A93422FD052
:1014D400914A934246D0914A93425DD0904A9342B6
:1014E40074D01022E169B1F5004F00F08B80082A16
:1014F40000F20A81DFE812F0CE00DA00E60008010B
:10150400F200080108010801FE0002F55842126BBE
:1015140002F00302032A09D8DFE802F0020406728B
:101524000122DFE70422DDE70822DBE71022D9E706
:1015340002F5E632126B02F44032B2F5803F0BD072
:1015440007D9B2F5003F09D0B2F5403F08D10222D5
:10155400C8E72AB90022C5E70422C3E70822C1E785
:101564001022BFE702F5E432126B02F44022B2F516
:10157400802F0BD007D9B2F5002F09D0B2F5402F38
:1015840008D10222AEE72AB90022ABE70422A9E778
:101594000822A7E71022A5E702F5E232126B02F453
:1015A4004012B2F5801F0BD007D9B2F5001F09D045
:1015B400B2F5401F08D1022294E72AB9002291E72C
:1015C40004228FE708228DE710228BE702F5E03230
:1015D400126B02F44002B2F5800F0BD007D9B2F5BA
:1015E400000F09D0B2F5400F08D102227AE72AB9D8
:1015F400002277E7042275E7082273E7102271E7D7
:1016040002226FE7082A42D8DFE802F005172241D8
:101614002D4141413800FFF779FB6268530803EB21
:101624004003B3FBF2F39BB2002023F00F02C3F399
:10163400420313432268D36010BDFFF77DFB626849
:10164400530803EB4003B3FBF2F39BB20020ECE737
:101654006268530803F5740303F51053B3FBF2F304
:101664009BB20020E1E7FFF743FA6268530803EBFB
:101674004003B3FBF2F39BB20020D6E76268530841
:1016840003F58033B3FBF2F39BB20020CDE70120D6
:101694000023CAE7FFF73AFB636800EB5300B0FB93
:1016A400F3F0236880B2D8600020C5E7FFF744FB5D
:1016B400636800EB5300B0FBF3F0236880B2D8609A
:1016C4000020B9E761684A0802F5F40202F5905275
:1016D400B2FBF1F292B2DA600020ADE7FFF708FA4C
:1016E400636800EB5300B0FBF3F0236880B2D8606A
:1016F4000020A1E761684A0802F50042B2FBF1F25A
:1017040092B2DA60002097E7012095E7F369FFEFD2
:10171400003801400044004000480040004C0040B4
:1017240000500040436A13F0010F06D0026853686A
:1017340023F40033816A0B435360436A13F0020FAE
:1017440006D00268536823F48033C16A0B435360A4
:10175400436A13F0040F06D00268536823F480230D
:10176400016B0B435360436A13F0080F06D0026801
:10177400536823F40043416B0B435360436A13F0F3
:10178400100F06D00268936823F48053816B0B43D7
:101794009360436A13F0200F06D00268936823F421
:1017A4000053C16B0B439360436A13F0400F0AD09C
:1017B4000268536823F48013016C0B435360036C79
:1017C400B3F5801F0BD0436A13F0800F06D0026874
:1017D400536823F40023816C0B4353607047026801
:1017E400536823F4C003416C0B435360EBE72DE9CA
:1017F400F04105460F4616469846069C2B68DB6961
:1018040037EA03030CBF01230023B3421DD1B4F113
:10181400FF3FF3D02CB1FEF71DFDA0EB0800A04262
:10182400ECD92A68136823F4D07313602A68936888
:1018340023F001039360202385F8693085F86A302A
:10184400002385F86830032000E00020BDE8F08123
:1018540030B583B004460023C366FEF7FBFC05469F
:1018640023681B6813F0080F0ED123681B6813F05C
:10187400040F17D1202384F8693084F86A300020DB
:1018840084F8680003B030BD6FF07E4300930346D4
:1018940000224FF400112046FFF7A9FF0028E4D0EE
:1018A4000320EFE76FF07E4300932B4600224FF4B2
:1018B40080012046FFF79BFF0028DBD00320E1E7EF
:1018C40078B310B5044690F869300BB3242384F838
:1018D40069302268136823F0010313602046FFF780
:1018E400D1FD012813D0636ABBB92268536823F47D
:1018F400904353602268936823F02A03936022681C
:10190400136843F0010313602046FFF7A1FF10BDE5
:1019140080F8683000F08EF9D8E72046FFF702FF20
:10192400E3E701207047000030B58BB00024059434
:101934000694079408940994204B5A6942F40022AF
:101944005A615A6902F400220192019A5A6942F4D6
:1019540080025A615A6902F480020292029A5A6918
:1019640042F400325A615A6902F400320392039A33
:101974005A6942F480225A615B6903F48023049318
:10198400049B0F4D224640212846FEF79BFD4FF451
:10199400005305930B4B0693079405A90A48FEF7D9
:1019A400BBFC40230593012306930794089405A9DF
:1019B4002846FEF7B1FC0BB030BD00BF001002405A
:1019C40000040048000021100008004808B50E4833
:1019D4000E4B03604FF482734360002383604FF423
:1019E400E062C260036143614FF400728261C361CB
:1019F4000362436283620722C26203630823436370
:101A0400FFF702FC08BD00BF0402002000300140C3
:101A140008B50948094B03604FF41643436000239B
:101A24008360C36003610C2242618361C36103620A
:101A34004362FFF745FF08BD6802002000440040F0
:101A44002DE9F04F83B0824601914FF000093DE04B
:101A5400234CFF2222705AF829309B5DDB436370CC
:101A6400A270012505FA06F3E370DFF87CB00022CA
:101A740040215846FEF726FD1A4F0A232A462146DE
:101A84003846FFF71EFC0A232A4661193846FFF739
:101A940018FC0A232A46A11C3846FFF712FC0A2325
:101AA4002A46E11C3846FFF70CFC2A4640215846DA
:101AB400FEF708FD2E44072ECADD08F10108B8F52B
:101AC400FA7F01DA0026F6E709F10109019B99453D
:101AD40002DA4FF00008F2E703B0BDE8F08F00BF70
:101AE400FC010020040200200004004830B5A7B027
:101AF400242200211DA800F05DF9002417941894F5
:101B040019941A941B945822214601A800F052F902
:101B140002251C9501231F93102320931CA8FEF774
:101B2400D7FC0F231793189419944FF480631A93D6
:101B34001B94214617A8FFF713F80195049401A8F4
:101B4400FFF710F927B030BD00B58BB0FEF764FB8A
:101B5400FFF7CCFFFFF7E8FEFFF738FFFFF758FF6A
:101B64000023049305930693079308930993074B63
:101B7400009303F10802019203F110020292183358
:101B8400039304216846FFF75BFFE9E708000020A0
:101B940000B583B00C4B9A6942F001029A619A69CC
:101BA40002F001020092009ADA6942F08052DA618E
:101BB400DB6903F080530193019B0720FEF750FB80
:101BC40003B05DF804FB00BF0010024000B589B00B
:101BD4000023039304930593069307930268144B1D
:101BE4009A4202D009B05DF804FB03F560439A6998
:101BF40042F480529A619A6902F480520192019AE5
:101C04005A6942F400325A615B6903F40033029367
:101C1400029BE023039302230493032306930523E7
:101C2400079303A94FF09040FEF776FBDAE700BF75
:101C34000030014000B589B0002303930493059359
:101C4400069307930268134B9A4202D009B05DF8D9
:101C540004FB03F5E633DA6942F40032DA61DA6947
:101C640002F400320192019A5A6942F400325A6134
:101C74005B6903F400330293029B0C230393022356
:101C840004930723079303A94FF09040FEF744FB06
:101C9400DCE700BF004400407047FEE7FEE7FEE7D4
:101CA400FEE770477047704708B5FEF7C7FA08BDEE
:101CB4001549D1F8883043F47003C1F88830134BC8
:101CC4001A6842F001021A605868114A02405A60C8
:101CD4001A6822F0847222F480321A601A6822F49C
:101CE40080221A605A6822F4FE025A60DA6A22F0EC
:101CF4000F02DA62186B074A02401A6300229A60E4
:101D04004FF000638B60704700ED00E0001002406C
:101D14000CC07FF8CCFC00FFDFF834D0002103E0D6
:101D24000C4B5B58435004310B480C4B42189A42FD
:101D3400F6D30B4A02E0002342F8043B094B9A42D3
:101D4400F9D3FFF7B5FF00F011F8FFF7FDFEFEE74A
:101D540000000120201E000800000020E0010020F7
:101D6400E0010020D8020020FEE7000070B50D4E0F
:101D74000D4CA41BA4100025A54209D10B4E0C4CFC
:101D840000F020F8A41BA4100025A54205D170BDC5
:101D940056F8253098470135EEE756F82530984730
:101DA4000135F2E7181E0008181E0008181E000866
:101DB4001C1E000802440346934200D1704703F8F6
:101DC400011BF9E7F8B500BFF8BC08BC9E46704794
:0C1DD400F8B500BFF8BC08BC9E46704784
:101DE00002030405060708090A0B0C0D0E0F10105C
:101DF0000102030405060708090A0B0C0D0E0F105B
:101E000000000000000000000102030406070809AA
:081E10000000000001020304C0
:041E1800B901000804
:041E1C009501000824
:101E2000010000001000000088888888F888887009
:101E3000F880808080808080F8808080F08080F8CA
:101E4000000088502050880061626364656667689E
:101E5000696A6B6C6D6E6F7071727374757677787A
:101E6000797A0000DC000020240100201C01002001
:101E7000140100200C01002004010020FC000020BF
:101E8000F4000020EC000020E40000200800002006
:101E9000D4010020CC010020C40100201800002043
:101EA000BC010020B4010020AC010020A4010020EE
:101EB0009C01002094010020100000208C010020D3
:101EC000840100207C010020740100206C010020AE
:101ED000640100205C010020540100204C0100201E
:101EE000440100203C01002020000020340100209B
:101EF0002C0100207088882020005000708888887D
:101F0000C8A89870708808788888887070888888D1
:101F10007088887020202020201008F87088888819
:101F2000F080887070880808F08080F8101010F831
:101F3000905030107088080870088870F880402031
:101F400010088870F820202020A06020F8808040B1
:101F5000201008F8708808087888888850A8A88811
:101F600088888888205088888888888870888888A9
:101F70008888888820202020202020F87088080861
:101F8000708088708890A0C0F09090F00870888869
:101F90008888887080808080F08888F07088888841
:101FA000888888708888888898A8C8888888888859
:101FB000A8A8D8888890A0C0C0A09088E010101071
:101FC00010101038F8202020202020F888888888D9
:101FD000F888888870888888B08080788080808041
:101FE000F08080F8F0888888888888F07880808001
:101FF00080808078F8888888F088887800127A0055
:0400000508001D1DB5
:00000001FF
